{
  "_format": "hh-sol-artifact-1",
  "contractName": "CacaoFlowOpportunities",
  "sourceName": "src/CacaoFlowOpportunities.sol",
  "abi": [
    {
      "inputs": [
        {
          "internalType": "address",
          "name": "_usdc",
          "type": "address"
        },
        {
          "internalType": "address",
          "name": "_feeRecipient",
          "type": "address"
        }
      ],
      "stateMutability": "nonpayable",
      "type": "constructor"
    },
    {
      "inputs": [
        {
          "internalType": "address",
          "name": "owner",
          "type": "address"
        }
      ],
      "name": "OwnableInvalidOwner",
      "type": "error"
    },
    {
      "inputs": [
        {
          "internalType": "address",
          "name": "account",
          "type": "address"
        }
      ],
      "name": "OwnableUnauthorizedAccount",
      "type": "error"
    },
    {
      "inputs": [],
      "name": "ReentrancyGuardReentrantCall",
      "type": "error"
    },
    {
      "inputs": [
        {
          "internalType": "address",
          "name": "token",
          "type": "address"
        }
      ],
      "name": "SafeERC20FailedOperation",
      "type": "error"
    },
    {
      "anonymous": false,
      "inputs": [
        {
          "indexed": true,
          "internalType": "uint256",
          "name": "opportunityId",
          "type": "uint256"
        },
        {
          "indexed": true,
          "internalType": "uint256",
          "name": "positionId",
          "type": "uint256"
        },
        {
          "indexed": true,
          "internalType": "address",
          "name": "investor",
          "type": "address"
        },
        {
          "indexed": false,
          "internalType": "uint256",
          "name": "amount",
          "type": "uint256"
        }
      ],
      "name": "InvestmentMade",
      "type": "event"
    },
    {
      "anonymous": false,
      "inputs": [
        {
          "indexed": true,
          "internalType": "uint256",
          "name": "positionId",
          "type": "uint256"
        },
        {
          "indexed": true,
          "internalType": "address",
          "name": "investor",
          "type": "address"
        },
        {
          "indexed": false,
          "internalType": "uint256",
          "name": "amount",
          "type": "uint256"
        }
      ],
      "name": "InvestmentRefunded",
      "type": "event"
    },
    {
      "anonymous": false,
      "inputs": [
        {
          "indexed": true,
          "internalType": "uint256",
          "name": "id",
          "type": "uint256"
        }
      ],
      "name": "OpportunityCancelled",
      "type": "event"
    },
    {
      "anonymous": false,
      "inputs": [
        {
          "indexed": true,
          "internalType": "uint256",
          "name": "id",
          "type": "uint256"
        }
      ],
      "name": "OpportunityFunded",
      "type": "event"
    },
    {
      "anonymous": false,
      "inputs": [
        {
          "indexed": true,
          "internalType": "uint256",
          "name": "id",
          "type": "uint256"
        },
        {
          "indexed": false,
          "internalType": "string",
          "name": "vpcId",
          "type": "string"
        },
        {
          "indexed": false,
          "internalType": "string",
          "name": "opportunityId",
          "type": "string"
        },
        {
          "indexed": true,
          "internalType": "address",
          "name": "originator",
          "type": "address"
        },
        {
          "indexed": false,
          "internalType": "uint256",
          "name": "targetRaise",
          "type": "uint256"
        },
        {
          "indexed": false,
          "internalType": "uint256",
          "name": "expectedReturnBps",
          "type": "uint256"
        },
        {
          "indexed": false,
          "internalType": "uint256",
          "name": "tenorDays",
          "type": "uint256"
        },
        {
          "indexed": false,
          "internalType": "uint256",
          "name": "fundingDeadline",
          "type": "uint256"
        }
      ],
      "name": "OpportunityPublished",
      "type": "event"
    },
    {
      "anonymous": false,
      "inputs": [
        {
          "indexed": true,
          "internalType": "uint256",
          "name": "id",
          "type": "uint256"
        },
        {
          "indexed": false,
          "internalType": "uint256",
          "name": "settleAmount",
          "type": "uint256"
        }
      ],
      "name": "OpportunitySettled",
      "type": "event"
    },
    {
      "anonymous": false,
      "inputs": [
        {
          "indexed": true,
          "internalType": "address",
          "name": "previousOwner",
          "type": "address"
        },
        {
          "indexed": true,
          "internalType": "address",
          "name": "newOwner",
          "type": "address"
        }
      ],
      "name": "OwnershipTransferred",
      "type": "event"
    },
    {
      "anonymous": false,
      "inputs": [
        {
          "indexed": true,
          "internalType": "uint256",
          "name": "positionId",
          "type": "uint256"
        },
        {
          "indexed": true,
          "internalType": "address",
          "name": "investor",
          "type": "address"
        },
        {
          "indexed": false,
          "internalType": "uint256",
          "name": "principal",
          "type": "uint256"
        },
        {
          "indexed": false,
          "internalType": "uint256",
          "name": "returnAmount",
          "type": "uint256"
        }
      ],
      "name": "RepaymentClaimed",
      "type": "event"
    },
    {
      "inputs": [],
      "name": "BPS_DENOMINATOR",
      "outputs": [
        {
          "internalType": "uint256",
          "name": "",
          "type": "uint256"
        }
      ],
      "stateMutability": "view",
      "type": "function"
    },
    {
      "inputs": [],
      "name": "PLATFORM_FEE_BPS",
      "outputs": [
        {
          "internalType": "uint256",
          "name": "",
          "type": "uint256"
        }
      ],
      "stateMutability": "view",
      "type": "function"
    },
    {
      "inputs": [
        {
          "internalType": "uint256",
          "name": "id",
          "type": "uint256"
        }
      ],
      "name": "activateOpportunity",
      "outputs": [],
      "stateMutability": "nonpayable",
      "type": "function"
    },
    {
      "inputs": [
        {
          "internalType": "uint256",
          "name": "id",
          "type": "uint256"
        }
      ],
      "name": "cancelOpportunity",
      "outputs": [],
      "stateMutability": "nonpayable",
      "type": "function"
    },
    {
      "inputs": [
        {
          "internalType": "uint256",
          "name": "positionId",
          "type": "uint256"
        }
      ],
      "name": "claimRefund",
      "outputs": [],
      "stateMutability": "nonpayable",
      "type": "function"
    },
    {
      "inputs": [
        {
          "internalType": "uint256",
          "name": "positionId",
          "type": "uint256"
        }
      ],
      "name": "claimRepayment",
      "outputs": [],
      "stateMutability": "nonpayable",
      "type": "function"
    },
    {
      "inputs": [
        {
          "internalType": "string",
          "name": "vpcId",
          "type": "string"
        },
        {
          "internalType": "string",
          "name": "opportunityId",
          "type": "string"
        },
        {
          "internalType": "uint256",
          "name": "targetRaise",
          "type": "uint256"
        },
        {
          "internalType": "uint256",
          "name": "minTicket",
          "type": "uint256"
        },
        {
          "internalType": "uint256",
          "name": "expectedReturnBps",
          "type": "uint256"
        },
        {
          "internalType": "uint256",
          "name": "tenorDays",
          "type": "uint256"
        },
        {
          "internalType": "uint256",
          "name": "fundingDeadlineDays",
          "type": "uint256"
        }
      ],
      "name": "createOpportunity",
      "outputs": [
        {
          "internalType": "uint256",
          "name": "id",
          "type": "uint256"
        }
      ],
      "stateMutability": "nonpayable",
      "type": "function"
    },
    {
      "inputs": [
        {
          "internalType": "address",
          "name": "token",
          "type": "address"
        },
        {
          "internalType": "uint256",
          "name": "amount",
          "type": "uint256"
        }
      ],
      "name": "emergencyWithdraw",
      "outputs": [],
      "stateMutability": "nonpayable",
      "type": "function"
    },
    {
      "inputs": [],
      "name": "feeRecipient",
      "outputs": [
        {
          "internalType": "address",
          "name": "",
          "type": "address"
        }
      ],
      "stateMutability": "view",
      "type": "function"
    },
    {
      "inputs": [
        {
          "internalType": "address",
          "name": "investor",
          "type": "address"
        }
      ],
      "name": "getInvestorPositions",
      "outputs": [
        {
          "internalType": "uint256[]",
          "name": "",
          "type": "uint256[]"
        }
      ],
      "stateMutability": "view",
      "type": "function"
    },
    {
      "inputs": [
        {
          "internalType": "uint256",
          "name": "id",
          "type": "uint256"
        }
      ],
      "name": "getOpportunity",
      "outputs": [
        {
          "components": [
            {
              "internalType": "string",
              "name": "vpcId",
              "type": "string"
            },
            {
              "internalType": "string",
              "name": "opportunityId",
              "type": "string"
            },
            {
              "internalType": "address",
              "name": "originator",
              "type": "address"
            },
            {
              "internalType": "uint256",
              "name": "targetRaise",
              "type": "uint256"
            },
            {
              "internalType": "uint256",
              "name": "minTicket",
              "type": "uint256"
            },
            {
              "internalType": "uint256",
              "name": "expectedReturnBps",
              "type": "uint256"
            },
            {
              "internalType": "uint256",
              "name": "tenorDays",
              "type": "uint256"
            },
            {
              "internalType": "uint256",
              "name": "fundingDeadline",
              "type": "uint256"
            },
            {
              "internalType": "uint256",
              "name": "raisedAmount",
              "type": "uint256"
            },
            {
              "internalType": "uint256",
              "name": "settleAmount",
              "type": "uint256"
            },
            {
              "internalType": "enum CacaoFlowOpportunities.OpportunityStatus",
              "name": "status",
              "type": "uint8"
            }
          ],
          "internalType": "struct CacaoFlowOpportunities.Opportunity",
          "name": "",
          "type": "tuple"
        }
      ],
      "stateMutability": "view",
      "type": "function"
    },
    {
      "inputs": [
        {
          "internalType": "uint256",
          "name": "id",
          "type": "uint256"
        }
      ],
      "name": "getOpportunityPositions",
      "outputs": [
        {
          "internalType": "uint256[]",
          "name": "",
          "type": "uint256[]"
        }
      ],
      "stateMutability": "view",
      "type": "function"
    },
    {
      "inputs": [
        {
          "internalType": "uint256",
          "name": "positionId",
          "type": "uint256"
        }
      ],
      "name": "getPosition",
      "outputs": [
        {
          "components": [
            {
              "internalType": "uint256",
              "name": "opportunityId",
              "type": "uint256"
            },
            {
              "internalType": "address",
              "name": "investor",
              "type": "address"
            },
            {
              "internalType": "uint256",
              "name": "amount",
              "type": "uint256"
            },
            {
              "internalType": "bool",
              "name": "claimed",
              "type": "bool"
            }
          ],
          "internalType": "struct CacaoFlowOpportunities.Position",
          "name": "",
          "type": "tuple"
        }
      ],
      "stateMutability": "view",
      "type": "function"
    },
    {
      "inputs": [
        {
          "internalType": "uint256",
          "name": "id",
          "type": "uint256"
        },
        {
          "internalType": "uint256",
          "name": "amount",
          "type": "uint256"
        }
      ],
      "name": "invest",
      "outputs": [
        {
          "internalType": "uint256",
          "name": "positionId",
          "type": "uint256"
        }
      ],
      "stateMutability": "nonpayable",
      "type": "function"
    },
    {
      "inputs": [
        {
          "internalType": "address",
          "name": "",
          "type": "address"
        },
        {
          "internalType": "uint256",
          "name": "",
          "type": "uint256"
        }
      ],
      "name": "investorPositions",
      "outputs": [
        {
          "internalType": "uint256",
          "name": "",
          "type": "uint256"
        }
      ],
      "stateMutability": "view",
      "type": "function"
    },
    {
      "inputs": [
        {
          "internalType": "uint256",
          "name": "id",
          "type": "uint256"
        }
      ],
      "name": "markDefaulted",
      "outputs": [],
      "stateMutability": "nonpayable",
      "type": "function"
    },
    {
      "inputs": [
        {
          "internalType": "uint256",
          "name": "id",
          "type": "uint256"
        },
        {
          "internalType": "uint256",
          "name": "settleAmount",
          "type": "uint256"
        }
      ],
      "name": "markRepaid",
      "outputs": [],
      "stateMutability": "nonpayable",
      "type": "function"
    },
    {
      "inputs": [
        {
          "internalType": "uint256",
          "name": "",
          "type": "uint256"
        }
      ],
      "name": "opportunities",
      "outputs": [
        {
          "internalType": "string",
          "name": "vpcId",
          "type": "string"
        },
        {
          "internalType": "string",
          "name": "opportunityId",
          "type": "string"
        },
        {
          "internalType": "address",
          "name": "originator",
          "type": "address"
        },
        {
          "internalType": "uint256",
          "name": "targetRaise",
          "type": "uint256"
        },
        {
          "internalType": "uint256",
          "name": "minTicket",
          "type": "uint256"
        },
        {
          "internalType": "uint256",
          "name": "expectedReturnBps",
          "type": "uint256"
        },
        {
          "internalType": "uint256",
          "name": "tenorDays",
          "type": "uint256"
        },
        {
          "internalType": "uint256",
          "name": "fundingDeadline",
          "type": "uint256"
        },
        {
          "internalType": "uint256",
          "name": "raisedAmount",
          "type": "uint256"
        },
        {
          "internalType": "uint256",
          "name": "settleAmount",
          "type": "uint256"
        },
        {
          "internalType": "enum CacaoFlowOpportunities.OpportunityStatus",
          "name": "status",
          "type": "uint8"
        }
      ],
      "stateMutability": "view",
      "type": "function"
    },
    {
      "inputs": [],
      "name": "opportunityCount",
      "outputs": [
        {
          "internalType": "uint256",
          "name": "",
          "type": "uint256"
        }
      ],
      "stateMutability": "view",
      "type": "function"
    },
    {
      "inputs": [
        {
          "internalType": "uint256",
          "name": "",
          "type": "uint256"
        },
        {
          "internalType": "uint256",
          "name": "",
          "type": "uint256"
        }
      ],
      "name": "opportunityPositions",
      "outputs": [
        {
          "internalType": "uint256",
          "name": "",
          "type": "uint256"
        }
      ],
      "stateMutability": "view",
      "type": "function"
    },
    {
      "inputs": [],
      "name": "owner",
      "outputs": [
        {
          "internalType": "address",
          "name": "",
          "type": "address"
        }
      ],
      "stateMutability": "view",
      "type": "function"
    },
    {
      "inputs": [],
      "name": "positionCount",
      "outputs": [
        {
          "internalType": "uint256",
          "name": "",
          "type": "uint256"
        }
      ],
      "stateMutability": "view",
      "type": "function"
    },
    {
      "inputs": [
        {
          "internalType": "uint256",
          "name": "",
          "type": "uint256"
        }
      ],
      "name": "positions",
      "outputs": [
        {
          "internalType": "uint256",
          "name": "opportunityId",
          "type": "uint256"
        },
        {
          "internalType": "address",
          "name": "investor",
          "type": "address"
        },
        {
          "internalType": "uint256",
          "name": "amount",
          "type": "uint256"
        },
        {
          "internalType": "bool",
          "name": "claimed",
          "type": "bool"
        }
      ],
      "stateMutability": "view",
      "type": "function"
    },
    {
      "inputs": [
        {
          "internalType": "uint256",
          "name": "id",
          "type": "uint256"
        }
      ],
      "name": "publishOpportunity",
      "outputs": [],
      "stateMutability": "nonpayable",
      "type": "function"
    },
    {
      "inputs": [],
      "name": "renounceOwnership",
      "outputs": [],
      "stateMutability": "nonpayable",
      "type": "function"
    },
    {
      "inputs": [
        {
          "internalType": "address",
          "name": "_feeRecipient",
          "type": "address"
        }
      ],
      "name": "setFeeRecipient",
      "outputs": [],
      "stateMutability": "nonpayable",
      "type": "function"
    },
    {
      "inputs": [
        {
          "internalType": "address",
          "name": "newOwner",
          "type": "address"
        }
      ],
      "name": "transferOwnership",
      "outputs": [],
      "stateMutability": "nonpayable",
      "type": "function"
    },
    {
      "inputs": [],
      "name": "usdc",
      "outputs": [
        {
          "internalType": "contract IERC20",
          "name": "",
          "type": "address"
        }
      ],
      "stateMutability": "view",
      "type": "function"
    }
  ],
  "bytecode": "0x60a06040523480156200001157600080fd5b506040516200232e3803806200232e833981016040819052620000349162000121565b33806200005b57604051631e4fbdf760e01b81526000600482015260240160405180910390fd5b6200006681620000b4565b5060017f9b779b17422d0df92223018b32b4d1fa46e071723d6817e2486d003becc55f00556001600160a01b03918216608052600780546001600160a01b0319169190921617905562000159565b600080546001600160a01b038381166001600160a01b0319831681178455604051919092169283917f8be0079c531659141344cd1fd0a4f28419497f9722a3daafe3b4186f6b6457e09190a35050565b80516001600160a01b03811681146200011c57600080fd5b919050565b600080604083850312156200013557600080fd5b620001408362000104565b9150620001506020840162000104565b90509250929050565b60805161219d620001916000396000818161021b015281816106ad015281816106eb015281816109b201526115ed015261219d6000f3fe608060405234801561001057600080fd5b50600436106101c35760003560e01c80639ce39059116100f9578063e1a4521811610097578063eb02c30111610071578063eb02c3011461042f578063f2fde38b146104ec578063f7cff873146104ff578063ff2282c41461050857600080fd5b8063e1a452181461040a578063e74b981b14610413578063e7702d051461042657600080fd5b8063acd6c98f116100d3578063acd6c98f1461039a578063d4c0f0cf146103c4578063d87aa643146103d7578063dd836b3e146103ea57600080fd5b80639ce39059146103545780639d0c940614610374578063a15b8ef11461038757600080fd5b8063715018a6116101665780638da5cb5b116101405780638da5cb5b146102b157806395ccea67146102c2578063989be22b146102d557806399fbab88146102e857600080fd5b8063715018a61461028357806372a884121461028b578063732164501461029e57600080fd5b80633e413bee116101a25780633e413bee146102165780634690484014610255578063539aa77f146102685780635b7baf641461027057600080fd5b8062d878e8146101c85780632e377bee146101dd57806338f8fdee146101f0575b600080fd5b6101db6101d6366004611b4e565b61051b565b005b6101db6101eb366004611b4e565b610772565b6102036101fe366004611b83565b6107f5565b6040519081526020015b60405180910390f35b61023d7f000000000000000000000000000000000000000000000000000000000000000081565b6040516001600160a01b03909116815260200161020d565b60075461023d906001600160a01b031681565b610203606481565b6101db61027e366004611b4e565b610826565b6101db610a3b565b6101db610299366004611b4e565b610a4f565b6101db6102ac366004611b4e565b610b1d565b6000546001600160a01b031661023d565b6101db6102d0366004611b83565b610b9e565b6102036102e3366004611bad565b610bd0565b61032a6102f6366004611b4e565b600460205260009081526040902080546001820154600283015460039093015491926001600160a01b039091169160ff1684565b604080519485526001600160a01b039093166020850152918301521515606082015260800161020d565b610367610362366004611b4e565b610bec565b60405161020d9190611c4d565b610203610382366004611d60565b610dc4565b6101db610395366004611b4e565b61119a565b6103ad6103a8366004611b4e565b61121d565b60405161020d9b9a99989796959493929190611df8565b6101db6103d2366004611bad565b611391565b6102036103e5366004611bad565b611494565b6103fd6103f8366004611b4e565b611793565b60405161020d9190611e7b565b61020361271081565b6101db610421366004611ebf565b6117f5565b61020360035481565b6104ae61043d366004611b4e565b604080516080808201835260008083526020808401829052838501829052606093840182905294815260048552839020835191820184528054825260018101546001600160a01b03169482019490945260028401549281019290925260039092015460ff1615159181019190915290565b60405161020d9190815181526020808301516001600160a01b0316908201526040808301519082015260609182015115159181019190915260800190565b6101db6104fa366004611ebf565b61181f565b61020360015481565b6103fd610516366004611ebf565b61185a565b6105236118c4565b600081815260046020526040902060018101546001600160a01b031633146105865760405162461bcd60e51b81526020600482015260116024820152703737ba103cb7bab9103837b9b4ba34b7b760791b60448201526064015b60405180910390fd5b600381015460ff16156105cd5760405162461bcd60e51b815260206004820152600f60248201526e185b1c9958591e4818db185a5b5959608a1b604482015260640161057d565b805460009081526002602052604090206004600a82015460ff1660068111156105f8576105f8611c15565b146106325760405162461bcd60e51b815260206004820152600a6024820152691b9bdd081c995c185a5960b21b604482015260640161057d565b60038201805460ff19166001179055600282015460058201546000906127109061065c9084611ef7565b6106669190611f0e565b905060006106748284611f30565b90506000612710610686606485611ef7565b6106909190611f0e565b9050600061069e8284611f43565b90506106d46001600160a01b037f00000000000000000000000000000000000000000000000000000000000000001633836118e0565b811561071457600754610714906001600160a01b037f000000000000000000000000000000000000000000000000000000000000000081169116846118e0565b604080518681526020810186905233918a917fe42e7925e0c65cba8fb7bd5e426b82d4f7debbc88aa768a6f6bd6630753f3482910160405180910390a35050505050505061076f600160008051602061214883398151915255565b50565b61077a61191a565b600081815260026020526040812090600a82015460ff1660068111156107a2576107a2611c15565b146107db5760405162461bcd60e51b81526020600482015260096024820152681b9bdd08191c98599d60ba1b604482015260640161057d565b600a810180546001919060ff191682805b02179055505050565b6005602052816000526040600020818154811061081157600080fd5b90600052602060002001600091509150505481565b61082e6118c4565b600081815260046020526040902060018101546001600160a01b0316331461088c5760405162461bcd60e51b81526020600482015260116024820152703737ba103cb7bab9103837b9b4ba34b7b760791b604482015260640161057d565b600381015460ff16156108d35760405162461bcd60e51b815260206004820152600f60248201526e185b1c9958591e4818db185a5b5959608a1b604482015260640161057d565b805460009081526002602052604090206006600a82015460ff1660068111156108fe576108fe611c15565b148061092257506005600a82015460ff16600681111561092057610920611c15565b145b8061095357506001600a82015460ff16600681111561094357610943611c15565b1480156109535750806007015442115b6109905760405162461bcd60e51b815260206004820152600e60248201526d6e6f7420726566756e6461626c6560901b604482015260640161057d565b60038201805460ff1916600117905560028201546109da906001600160a01b037f0000000000000000000000000000000000000000000000000000000000000000169033906118e0565b336001600160a01b0316837fc6a2f493a6e1d86aa8d73122837edb3ae830ccf081d0b273177ed6f6ea2b43bd8460020154604051610a1a91815260200190565b60405180910390a3505061076f600160008051602061214883398151915255565b610a4361191a565b610a4d6000611947565b565b610a5761191a565b600081815260026020526040812090600a82015460ff166006811115610a7f57610a7f611c15565b1480610aa357506001600a82015460ff166006811115610aa157610aa1611c15565b145b610adf5760405162461bcd60e51b815260206004820152600d60248201526c18d85b9b9bdd0818d85b98d95b609a1b604482015260640161057d565b600a8101805460ff1916600617905560405182907f253f680fab3cfea163478a670340922d20a71712ce4eb847d060f37e1764f73590600090a25050565b610b2561191a565b60008181526002602052604090206003600a82015460ff166006811115610b4e57610b4e611c15565b14610b885760405162461bcd60e51b815260206004820152600a6024820152696e6f742061637469766560b01b604482015260640161057d565b600a810180546005919060ff19166001836107ec565b610ba661191a565b610bcc610bbb6000546001600160a01b031690565b6001600160a01b03841690836118e0565b5050565b6006602052816000526040600020818154811061081157600080fd5b610bf4611adb565b6000828152600260205260409081902081516101608101909252805482908290610c1d90611f56565b80601f0160208091040260200160405190810160405280929190818152602001828054610c4990611f56565b8015610c965780601f10610c6b57610100808354040283529160200191610c96565b820191906000526020600020905b815481529060010190602001808311610c7957829003601f168201915b50505050508152602001600182018054610caf90611f56565b80601f0160208091040260200160405190810160405280929190818152602001828054610cdb90611f56565b8015610d285780601f10610cfd57610100808354040283529160200191610d28565b820191906000526020600020905b815481529060010190602001808311610d0b57829003601f168201915b505050918352505060028201546001600160a01b0316602082015260038201546040820152600482015460608201526005820154608082015260068083015460a0830152600783015460c0830152600883015460e08301526009830154610100830152600a8301546101209092019160ff1690811115610daa57610daa611c15565b6006811115610dbb57610dbb611c15565b90525092915050565b6000808611610e155760405162461bcd60e51b815260206004820152601760248201527f7461726765745261697365206d757374206265203e2030000000000000000000604482015260640161057d565b600085118015610e255750858511155b610e655760405162461bcd60e51b81526020600482015260116024820152701a5b9d985b1a59081b5a5b951a58dad95d607a1b604482015260640161057d565b600084118015610e7757506113888411155b610eb95760405162461bcd60e51b815260206004820152601360248201527272657475726e206f7574206f662072616e676560681b604482015260640161057d565b600083118015610ecb57506102da8311155b610f0c5760405162461bcd60e51b815260206004820152601260248201527174656e6f72206f7574206f662072616e676560701b604482015260640161057d565b600082118015610f1e575061016d8211155b610f625760405162461bcd60e51b8152602060048201526015602482015274646561646c696e65206f7574206f662072616e676560581b604482015260640161057d565b60018054906000610f7283611f90565b90915550604080516101806020601f8e01819004028201810190925261016081018c81529293509182918d908d9081908501838280828437600092019190915250505090825250604080516020601f8c018190048102820181019092528a815291810191908b908b908190840183828082843760009201919091525050509082525033602082015260408101889052606081018790526080810186905260a0810185905260c0016110268462015180611ef7565b6110309042611f30565b815260200160008152602001600081526020016000600681111561105657611056611c15565b9052600082815260026020526040902081518190611074908261200f565b5060208201516001820190611089908261200f565b5060408201518160020160006101000a8154816001600160a01b0302191690836001600160a01b03160217905550606082015181600301556080820151816004015560a0820151816005015560c0820151816006015560e082015181600701556101008201518160080155610120820151816009015561014082015181600a0160006101000a81548160ff0219169083600681111561112a5761112a611c15565b0217905550505060008181526002602052604090819020600701549051339183917f2d24cc2efab4ae6fd73d34f78c551354557e51a1985c416456622418b4bd9d9791611185918f918f918f918f918f918e918e91906120f8565b60405180910390a39998505050505050505050565b6111a261191a565b600081815260026020819052604090912090600a82015460ff1660068111156111cd576111cd611c15565b146112075760405162461bcd60e51b815260206004820152600a6024820152691b9bdd08199d5b99195960b21b604482015260640161057d565b600a810180546003919060ff19166001836107ec565b60026020526000908152604090208054819061123890611f56565b80601f016020809104026020016040519081016040528092919081815260200182805461126490611f56565b80156112b15780601f10611286576101008083540402835291602001916112b1565b820191906000526020600020905b81548152906001019060200180831161129457829003601f168201915b5050505050908060010180546112c690611f56565b80601f01602080910402602001604051908101604052809291908181526020018280546112f290611f56565b801561133f5780601f106113145761010080835404028352916020019161133f565b820191906000526020600020905b81548152906001019060200180831161132257829003601f168201915b50505060028401546003850154600486015460058701546006880154600789015460088a015460098b0154600a909b0154999a6001600160a01b03909716999598509396509194909391929160ff168b565b61139961191a565b60008281526002602052604090206003600a82015460ff1660068111156113c2576113c2611c15565b146113fc5760405162461bcd60e51b815260206004820152600a6024820152696e6f742061637469766560b01b604482015260640161057d565b600082116114445760405162461bcd60e51b81526020600482015260156024820152741a5b9d985b1a59081cd95d1d1b1948185b5bdd5b9d605a1b604482015260640161057d565b60098101829055600a8101805460ff1916600417905560405182815283907f66e6aa5c47a9fed002d4f5859d0f9d06d6a0f4ac5fc62b8b66bdd9cc1a6238579060200160405180910390a2505050565b600061149e6118c4565b60008381526002602052604090206001600a82015460ff1660068111156114c7576114c7611c15565b146114ff5760405162461bcd60e51b81526020600482015260086024820152673737ba1037b832b760c11b604482015260640161057d565b80600701544211156115455760405162461bcd60e51b815260206004820152600f60248201526e191958591b1a5b99481c185cdcd959608a1b604482015260640161057d565b806004015483101561158c5760405162461bcd60e51b815260206004820152601060248201526f18995b1bddc81b5a5b881d1a58dad95d60821b604482015260640161057d565b80600301548382600801546115a19190611f30565b11156115e05760405162461bcd60e51b815260206004820152600e60248201526d195e18d959591cc81d185c99d95d60921b604482015260640161057d565b6116156001600160a01b037f000000000000000000000000000000000000000000000000000000000000000016333086611997565b6003805490600061162583611f90565b909155506040805160808101825286815233602080830182815283850189815260006060860181815288825260048552878220965187559251600180880180546001600160a01b0319166001600160a01b03909316929092179091559151600287015591516003909501805460ff191695151595909517909455918252600581528382208054808501825590835281832001859055888252600681529281208054928301815581529182200182905560088301805492945085929091906116ed908490611f30565b90915550506040518381523390839086907f0b5c532717e370bf5dc113b6bd2ad1a18df9d621819fe0e7407ce89c2835759d9060200160405180910390a4806003015481600801540361177557600a8101805460ff1916600217905560405184907fca58b4a6b86759bec08153d170d7d3899b4661b8d47c61c59b0befebc6cec38890600090a25b5061178d600160008051602061214883398151915255565b92915050565b6000818152600660209081526040918290208054835181840281018401909452808452606093928301828280156117e957602002820191906000526020600020905b8154815260200190600101908083116117d5575b50505050509050919050565b6117fd61191a565b600780546001600160a01b0319166001600160a01b0392909216919091179055565b61182761191a565b6001600160a01b03811661185157604051631e4fbdf760e01b81526000600482015260240161057d565b61076f81611947565b6001600160a01b0381166000908152600560209081526040918290208054835181840281018401909452808452606093928301828280156117e957602002820191906000526020600020908154815260200190600101908083116117d55750505050509050919050565b6118cc6119d3565b600260008051602061214883398151915255565b6118ed8383836001611a03565b61191557604051635274afe760e01b81526001600160a01b038416600482015260240161057d565b505050565b6000546001600160a01b03163314610a4d5760405163118cdaa760e01b815233600482015260240161057d565b600080546001600160a01b038381166001600160a01b0319831681178455604051919092169283917f8be0079c531659141344cd1fd0a4f28419497f9722a3daafe3b4186f6b6457e09190a35050565b6119a5848484846001611a69565b6119cd57604051635274afe760e01b81526001600160a01b038516600482015260240161057d565b50505050565b60008051602061214883398151915254600203610a4d57604051633ee5aeb560e01b815260040160405180910390fd5b60405163a9059cbb60e01b60008181526001600160a01b038616600452602485905291602083604481808b5af192506001600051148316611a5d578383151615611a50573d6000823e3d81fd5b6000873b113d1516831692505b60405250949350505050565b6040516323b872dd60e01b60008181526001600160a01b038781166004528616602452604485905291602083606481808c5af192506001600051148316611ac9578383151615611abc573d6000823e3d81fd5b6000883b113d1516831692505b60405250600060605295945050505050565b604051806101600160405280606081526020016060815260200160006001600160a01b031681526020016000815260200160008152602001600081526020016000815260200160008152602001600081526020016000815260200160006006811115611b4957611b49611c15565b905290565b600060208284031215611b6057600080fd5b5035919050565b80356001600160a01b0381168114611b7e57600080fd5b919050565b60008060408385031215611b9657600080fd5b611b9f83611b67565b946020939093013593505050565b60008060408385031215611bc057600080fd5b50508035926020909101359150565b6000815180845260005b81811015611bf557602081850181015186830182015201611bd9565b506000602082860101526020601f19601f83011685010191505092915050565b634e487b7160e01b600052602160045260246000fd5b60078110611c4957634e487b7160e01b600052602160045260246000fd5b9052565b6020815260008251610160806020850152611c6c610180850183611bcf565b91506020850151601f19858403016040860152611c898382611bcf565b9250506040850151611ca660608601826001600160a01b03169052565b5060608501516080850152608085015160a085015260a085015160c085015260c085015160e085015260e0850151610100818187015280870151915050610120818187015280870151915050610140818187015280870151915050611d0d82860182611c2b565b5090949350505050565b60008083601f840112611d2957600080fd5b50813567ffffffffffffffff811115611d4157600080fd5b602083019150836020828501011115611d5957600080fd5b9250929050565b600080600080600080600080600060e08a8c031215611d7e57600080fd5b893567ffffffffffffffff80821115611d9657600080fd5b611da28d838e01611d17565b909b50995060208c0135915080821115611dbb57600080fd5b50611dc88c828d01611d17565b9a9d999c509a604081013599606082013599506080820135985060a0820135975060c09091013595509350505050565b6000610160808352611e0c8184018f611bcf565b90508281036020840152611e20818e611bcf565b91505060018060a01b038b1660408301528960608301528860808301528760a08301528660c08301528560e08301528461010083015283610120830152611e6b610140830184611c2b565b9c9b505050505050505050505050565b6020808252825182820181905260009190848201906040850190845b81811015611eb357835183529284019291840191600101611e97565b50909695505050505050565b600060208284031215611ed157600080fd5b611eda82611b67565b9392505050565b634e487b7160e01b600052601160045260246000fd5b808202811582820484141761178d5761178d611ee1565b600082611f2b57634e487b7160e01b600052601260045260246000fd5b500490565b8082018082111561178d5761178d611ee1565b8181038181111561178d5761178d611ee1565b600181811c90821680611f6a57607f821691505b602082108103611f8a57634e487b7160e01b600052602260045260246000fd5b50919050565b600060018201611fa257611fa2611ee1565b5060010190565b634e487b7160e01b600052604160045260246000fd5b601f821115611915576000816000526020600020601f850160051c81016020861015611fe85750805b601f850160051c820191505b8181101561200757828155600101611ff4565b505050505050565b815167ffffffffffffffff81111561202957612029611fa9565b61203d816120378454611f56565b84611fbf565b602080601f831160018114612072576000841561205a5750858301515b600019600386901b1c1916600185901b178555612007565b600085815260208120601f198616915b828110156120a157888601518255948401946001909101908401612082565b50858210156120bf5787850151600019600388901b60f8161c191681555b5050505050600190811b01905550565b81835281816020850137506000828201602090810191909152601f909101601f19169091010190565b60c08152600061210c60c083018a8c6120cf565b828103602084015261211f81898b6120cf565b9150508560408301528460608301528360808301528260a0830152999850505050505050505056fe9b779b17422d0df92223018b32b4d1fa46e071723d6817e2486d003becc55f00a26469706673582212202f607f164b19cf4c0184e4916ced56a4a794726d5a9bd77819dffa26528dc3c664736f6c63430008180033",
  "linkReferences": {},
  "deployedLinkReferences": {}
}