{
  "_format": "hh-sol-artifact-1",
  "contractName": "MockUSDC",
  "sourceName": "src/MockUSDC.sol",
  "abi": [
    {
      "inputs": [],
      "stateMutability": "nonpayable",
      "type": "constructor"
    },
    {
      "inputs": [
        {
          "internalType": "address",
          "name": "spender",
          "type": "address"
        },
        {
          "internalType": "uint256",
          "name": "allowance",
          "type": "uint256"
        },
        {
          "internalType": "uint256",
          "name": "needed",
          "type": "uint256"
        }
      ],
      "name": "ERC20InsufficientAllowance",
      "type": "error"
    },
    {
      "inputs": [
        {
          "internalType": "address",
          "name": "sender",
          "type": "address"
        },
        {
          "internalType": "uint256",
          "name": "balance",
          "type": "uint256"
        },
        {
          "internalType": "uint256",
          "name": "needed",
          "type": "uint256"
        }
      ],
      "name": "ERC20InsufficientBalance",
      "type": "error"
    },
    {
      "inputs": [
        {
          "internalType": "address",
          "name": "approver",
          "type": "address"
        }
      ],
      "name": "ERC20InvalidApprover",
      "type": "error"
    },
    {
      "inputs": [
        {
          "internalType": "address",
          "name": "receiver",
          "type": "address"
        }
      ],
      "name": "ERC20InvalidReceiver",
      "type": "error"
    },
    {
      "inputs": [
        {
          "internalType": "address",
          "name": "sender",
          "type": "address"
        }
      ],
      "name": "ERC20InvalidSender",
      "type": "error"
    },
    {
      "inputs": [
        {
          "internalType": "address",
          "name": "spender",
          "type": "address"
        }
      ],
      "name": "ERC20InvalidSpender",
      "type": "error"
    },
    {
      "inputs": [
        {
          "internalType": "address",
          "name": "owner",
          "type": "address"
        }
      ],
      "name": "OwnableInvalidOwner",
      "type": "error"
    },
    {
      "inputs": [
        {
          "internalType": "address",
          "name": "account",
          "type": "address"
        }
      ],
      "name": "OwnableUnauthorizedAccount",
      "type": "error"
    },
    {
      "anonymous": false,
      "inputs": [
        {
          "indexed": true,
          "internalType": "address",
          "name": "owner",
          "type": "address"
        },
        {
          "indexed": true,
          "internalType": "address",
          "name": "spender",
          "type": "address"
        },
        {
          "indexed": false,
          "internalType": "uint256",
          "name": "value",
          "type": "uint256"
        }
      ],
      "name": "Approval",
      "type": "event"
    },
    {
      "anonymous": false,
      "inputs": [
        {
          "indexed": true,
          "internalType": "address",
          "name": "previousOwner",
          "type": "address"
        },
        {
          "indexed": true,
          "internalType": "address",
          "name": "newOwner",
          "type": "address"
        }
      ],
      "name": "OwnershipTransferred",
      "type": "event"
    },
    {
      "anonymous": false,
      "inputs": [
        {
          "indexed": true,
          "internalType": "address",
          "name": "from",
          "type": "address"
        },
        {
          "indexed": true,
          "internalType": "address",
          "name": "to",
          "type": "address"
        },
        {
          "indexed": false,
          "internalType": "uint256",
          "name": "value",
          "type": "uint256"
        }
      ],
      "name": "Transfer",
      "type": "event"
    },
    {
      "inputs": [],
      "name": "FAUCET_AMOUNT",
      "outputs": [
        {
          "internalType": "uint256",
          "name": "",
          "type": "uint256"
        }
      ],
      "stateMutability": "view",
      "type": "function"
    },
    {
      "inputs": [
        {
          "internalType": "address",
          "name": "owner",
          "type": "address"
        },
        {
          "internalType": "address",
          "name": "spender",
          "type": "address"
        }
      ],
      "name": "allowance",
      "outputs": [
        {
          "internalType": "uint256",
          "name": "",
          "type": "uint256"
        }
      ],
      "stateMutability": "view",
      "type": "function"
    },
    {
      "inputs": [
        {
          "internalType": "address",
          "name": "spender",
          "type": "address"
        },
        {
          "internalType": "uint256",
          "name": "value",
          "type": "uint256"
        }
      ],
      "name": "approve",
      "outputs": [
        {
          "internalType": "bool",
          "name": "",
          "type": "bool"
        }
      ],
      "stateMutability": "nonpayable",
      "type": "function"
    },
    {
      "inputs": [
        {
          "internalType": "address",
          "name": "account",
          "type": "address"
        }
      ],
      "name": "balanceOf",
      "outputs": [
        {
          "internalType": "uint256",
          "name": "",
          "type": "uint256"
        }
      ],
      "stateMutability": "view",
      "type": "function"
    },
    {
      "inputs": [],
      "name": "decimals",
      "outputs": [
        {
          "internalType": "uint8",
          "name": "",
          "type": "uint8"
        }
      ],
      "stateMutability": "pure",
      "type": "function"
    },
    {
      "inputs": [],
      "name": "faucet",
      "outputs": [],
      "stateMutability": "nonpayable",
      "type": "function"
    },
    {
      "inputs": [
        {
          "internalType": "address",
          "name": "to",
          "type": "address"
        },
        {
          "internalType": "uint256",
          "name": "amount",
          "type": "uint256"
        }
      ],
      "name": "mint",
      "outputs": [],
      "stateMutability": "nonpayable",
      "type": "function"
    },
    {
      "inputs": [],
      "name": "name",
      "outputs": [
        {
          "internalType": "string",
          "name": "",
          "type": "string"
        }
      ],
      "stateMutability": "view",
      "type": "function"
    },
    {
      "inputs": [],
      "name": "owner",
      "outputs": [
        {
          "internalType": "address",
          "name": "",
          "type": "address"
        }
      ],
      "stateMutability": "view",
      "type": "function"
    },
    {
      "inputs": [],
      "name": "renounceOwnership",
      "outputs": [],
      "stateMutability": "nonpayable",
      "type": "function"
    },
    {
      "inputs": [],
      "name": "symbol",
      "outputs": [
        {
          "internalType": "string",
          "name": "",
          "type": "string"
        }
      ],
      "stateMutability": "view",
      "type": "function"
    },
    {
      "inputs": [],
      "name": "totalSupply",
      "outputs": [
        {
          "internalType": "uint256",
          "name": "",
          "type": "uint256"
        }
      ],
      "stateMutability": "view",
      "type": "function"
    },
    {
      "inputs": [
        {
          "internalType": "address",
          "name": "to",
          "type": "address"
        },
        {
          "internalType": "uint256",
          "name": "value",
          "type": "uint256"
        }
      ],
      "name": "transfer",
      "outputs": [
        {
          "internalType": "bool",
          "name": "",
          "type": "bool"
        }
      ],
      "stateMutability": "nonpayable",
      "type": "function"
    },
    {
      "inputs": [
        {
          "internalType": "address",
          "name": "from",
          "type": "address"
        },
        {
          "internalType": "address",
          "name": "to",
          "type": "address"
        },
        {
          "internalType": "uint256",
          "name": "value",
          "type": "uint256"
        }
      ],
      "name": "transferFrom",
      "outputs": [
        {
          "internalType": "bool",
          "name": "",
          "type": "bool"
        }
      ],
      "stateMutability": "nonpayable",
      "type": "function"
    },
    {
      "inputs": [
        {
          "internalType": "address",
          "name": "newOwner",
          "type": "address"
        }
      ],
      "name": "transferOwnership",
      "outputs": [],
      "stateMutability": "nonpayable",
      "type": "function"
    }
  ],
  "bytecode": "0x60806040523480156200001157600080fd5b50336040518060400160405280600d81526020016c26b7b1b5902aa9a21021b7b4b760991b815250604051806040016040528060058152602001646d5553444360d81b81525081600390816200006891906200034e565b5060046200007782826200034e565b5050506001600160a01b038116620000aa57604051631e4fbdf760e01b8152600060048201526024015b60405180910390fd5b620000b581620000e4565b50620000de33620000c96006600a6200052f565b620000d890620f424062000547565b62000136565b62000577565b600580546001600160a01b038381166001600160a01b0319831681179093556040519116919082907f8be0079c531659141344cd1fd0a4f28419497f9722a3daafe3b4186f6b6457e090600090a35050565b6001600160a01b038216620001625760405163ec442f0560e01b815260006004820152602401620000a1565b620001706000838362000174565b5050565b6001600160a01b038316620001a357806002600082825462000197919062000561565b90915550620002179050565b6001600160a01b03831660009081526020819052604090205481811015620001f85760405163391434e360e21b81526001600160a01b03851660048201526024810182905260448101839052606401620000a1565b6001600160a01b03841660009081526020819052604090209082900390555b6001600160a01b038216620002355760028054829003905562000254565b6001600160a01b03821660009081526020819052604090208054820190555b816001600160a01b0316836001600160a01b03167fddf252ad1be2c89b69c2b068fc378daa952ba7f163c4a11628f55a4df523b3ef836040516200029a91815260200190565b60405180910390a3505050565b634e487b7160e01b600052604160045260246000fd5b600181811c90821680620002d257607f821691505b602082108103620002f357634e487b7160e01b600052602260045260246000fd5b50919050565b601f82111562000349576000816000526020600020601f850160051c81016020861015620003245750805b601f850160051c820191505b81811015620003455782815560010162000330565b5050505b505050565b81516001600160401b038111156200036a576200036a620002a7565b62000382816200037b8454620002bd565b84620002f9565b602080601f831160018114620003ba5760008415620003a15750858301515b600019600386901b1c1916600185901b17855562000345565b600085815260208120601f198616915b82811015620003eb57888601518255948401946001909101908401620003ca565b50858210156200040a5787850151600019600388901b60f8161c191681555b5050505050600190811b01905550565b634e487b7160e01b600052601160045260246000fd5b600181815b80851115620004715781600019048211156200045557620004556200041a565b808516156200046357918102915b93841c939080029062000435565b509250929050565b6000826200048a5750600162000529565b81620004995750600062000529565b8160018114620004b25760028114620004bd57620004dd565b600191505062000529565b60ff841115620004d157620004d16200041a565b50506001821b62000529565b5060208310610133831016604e8410600b841016171562000502575081810a62000529565b6200050e838362000430565b80600019048211156200052557620005256200041a565b0290505b92915050565b60006200054060ff84168362000479565b9392505050565b80820281158282048414176200052957620005296200041a565b808201808211156200052957620005296200041a565b61090f80620005876000396000f3fe608060405234801561001057600080fd5b50600436106100f55760003560e01c8063715018a611610097578063a9059cbb11610066578063a9059cbb146101e4578063dd62ed3e146101f7578063de5f72fd14610230578063f2fde38b1461023857600080fd5b8063715018a6146101ad57806376697640146101b55780638da5cb5b146101c157806395d89b41146101dc57600080fd5b806323b872dd116100d357806323b872dd1461014d578063313ce5671461016057806340c10f191461016f57806370a082311461018457600080fd5b806306fdde03146100fa578063095ea7b31461011857806318160ddd1461013b575b600080fd5b61010261024b565b60405161010f9190610758565b60405180910390f35b61012b6101263660046107c3565b6102dd565b604051901515815260200161010f565b6002545b60405190815260200161010f565b61012b61015b3660046107ed565b6102f7565b6040516006815260200161010f565b61018261017d3660046107c3565b61031b565b005b61013f610192366004610829565b6001600160a01b031660009081526020819052604090205490565b610182610331565b61013f6402540be40081565b6005546040516001600160a01b03909116815260200161010f565b610102610345565b61012b6101f23660046107c3565b610354565b61013f61020536600461084b565b6001600160a01b03918216600090815260016020908152604080832093909416825291909152205490565b610182610362565b610182610246366004610829565b610371565b60606003805461025a9061087e565b80601f01602080910402602001604051908101604052809291908181526020018280546102869061087e565b80156102d35780601f106102a8576101008083540402835291602001916102d3565b820191906000526020600020905b8154815290600101906020018083116102b657829003601f168201915b5050505050905090565b6000336102eb8185856103b4565b60019150505b92915050565b6000336103058582856103c6565b610310858585610445565b506001949350505050565b6103236104a4565b61032d82826104d1565b5050565b6103396104a4565b6103436000610507565b565b60606004805461025a9061087e565b6000336102eb818585610445565b610343336402540be4006104d1565b6103796104a4565b6001600160a01b0381166103a857604051631e4fbdf760e01b8152600060048201526024015b60405180910390fd5b6103b181610507565b50565b6103c18383836001610559565b505050565b6001600160a01b0383811660009081526001602090815260408083209386168352929052205460001981101561043f578181101561043057604051637dc7a0d960e11b81526001600160a01b0384166004820152602481018290526044810183905260640161039f565b61043f84848484036000610559565b50505050565b6001600160a01b03831661046f57604051634b637e8f60e11b81526000600482015260240161039f565b6001600160a01b0382166104995760405163ec442f0560e01b81526000600482015260240161039f565b6103c183838361062e565b6005546001600160a01b031633146103435760405163118cdaa760e01b815233600482015260240161039f565b6001600160a01b0382166104fb5760405163ec442f0560e01b81526000600482015260240161039f565b61032d6000838361062e565b600580546001600160a01b038381166001600160a01b0319831681179093556040519116919082907f8be0079c531659141344cd1fd0a4f28419497f9722a3daafe3b4186f6b6457e090600090a35050565b6001600160a01b0384166105835760405163e602df0560e01b81526000600482015260240161039f565b6001600160a01b0383166105ad57604051634a1406b160e11b81526000600482015260240161039f565b6001600160a01b038085166000908152600160209081526040808320938716835292905220829055801561043f57826001600160a01b0316846001600160a01b03167f8c5be1e5ebec7d5bd14f71427d1e84f3dd0314c0f7b2291e5b200ac8c7c3b9258460405161062091815260200190565b60405180910390a350505050565b6001600160a01b03831661065957806002600082825461064e91906108b8565b909155506106cb9050565b6001600160a01b038316600090815260208190526040902054818110156106ac5760405163391434e360e21b81526001600160a01b0385166004820152602481018290526044810183905260640161039f565b6001600160a01b03841660009081526020819052604090209082900390555b6001600160a01b0382166106e757600280548290039055610706565b6001600160a01b03821660009081526020819052604090208054820190555b816001600160a01b0316836001600160a01b03167fddf252ad1be2c89b69c2b068fc378daa952ba7f163c4a11628f55a4df523b3ef8360405161074b91815260200190565b60405180910390a3505050565b60006020808352835180602085015260005b818110156107865785810183015185820160400152820161076a565b506000604082860101526040601f19601f8301168501019250505092915050565b80356001600160a01b03811681146107be57600080fd5b919050565b600080604083850312156107d657600080fd5b6107df836107a7565b946020939093013593505050565b60008060006060848603121561080257600080fd5b61080b846107a7565b9250610819602085016107a7565b9150604084013590509250925092565b60006020828403121561083b57600080fd5b610844826107a7565b9392505050565b6000806040838503121561085e57600080fd5b610867836107a7565b9150610875602084016107a7565b90509250929050565b600181811c9082168061089257607f821691505b6020821081036108b257634e487b7160e01b600052602260045260246000fd5b50919050565b808201808211156102f157634e487b7160e01b600052601160045260246000fdfea2646970667358221220ec522d10ec498d6e41513a38aa19994fcdd784a285caecfb54500e75a11d86e264736f6c63430008180033",
  "linkReferences": {},
  "deployedLinkReferences": {}
}